:020000040001F9
:1080000078390020ED81010007820100098201001A
:108010000000000000000000000000000000000060
:108020000000000000000000000000000B820100C2
:1080300000000000000000000D8201000F8201001E
:108040001182010011820100919001000590010050
:108050001182010000000000C98A01004D8A010060
:1080600011820100118201001182010011820100C0
:1080700011820100118201001182010011820100B0
:10808000F1910100DD8F01001182010011820100D8
:10809000199001001182010021900100118201005C
:1080A00011820100118201000000000000000000A8
:1080B00000000000000000000000000000000000C0
:1080C00000F002F800F046F80CA030C80838241878
:1080D0002D18A246671EAB4654465D46AC4201D100
:1080E00000F038F87E460F3E0FCCB64601263342EC
:1080F00000D0FB1AA246AB4633431847C85A0000CB
:10810000E85A0000103A02D378C878C1FAD852076A
:1081100001D330C830C101D504680C60704700003D
:108120000023002400250026103A01D378C1FBD893
:10813000520700D330C100D50B60704710B57829C5
:1081400002D100F0C1F810BD002010BD1FB51FBD49
:1081500010B510BD00F048FC1146FFF7F7FF03F023
:1081600005FB00F060FC03B4FFF7F2FF03BC00F076
:1081700065FC0000401E00BF00BF00BF00BF00BF85
:1081800000BF00BF00BF00BF00BF00BF00BFF1D1F4
:1081900070470000401E00BF00BF00BF00BF00BF0F
:1081A00000BF00BF00BF00BF00BF00BF00BFF1D1D4
:1081B0007047000070B505460C46164602E00FCC2D
:1081C0000FC5103E102EFAD2082E02D303CC03C5E1
:1081D000083E042E07D301CC01C5361F03E02178E9
:1081E0002970641C6D1C761EF9D270BD03210C48E9
:1081F00002680A4302600B4802680A4302600A48A8
:1082000080470A480047FEE7FEE7FEE7FEE7FEE795
:10821000FEE7000006480749074A084B7047000080
:10822000240500405405004059900100C180010020
:10823000782900207839002078310020783100201A
:108240000FB4054910B503AA029800F09DFB10BCBD
:1082500008BC04B018470000F0200020F8B50E4616
:108260000446002020622046E1688847002829D083
:10827000252802D06268A16820E0E1682046002736
:10828000884705001ED028464138192802D8012702
:10829000FF0220353246204627602946FFF74EFF71
:1082A000002808D0012804D0F61DF608F60008368C
:1082B000D9E7361DD7E762682846A1689047206A4B
:1082C000401CCFE7206AF8BD70B504460D46214634
:1082D0001068C046C0462188090502D50F4A7A4475
:1082E00002E00E4A7A440E3223460021243305E090
:1082F00006070009360F965D5E54491C0028F7D129
:1083000020780023000705D5702D03D0002901D067
:1083100002231132204600F0DFFA70BDBA58000087
:10832000F8B5042A2CD3830712D00B78491C0370AC
:10833000401C521E83070BD00B78491C0370401C55
:10834000521E830704D00B78491C0370401C521E38
:108350008B079B0F05D0C91ADF002023DE1B08C93D
:108360000AE0FFF727FFF8BD1D4608C9FD401C467F
:10837000B4402C4310C0121F042AF5D2F308C91AC6
:10838000521EF0D40B78491C0370401C521EEAD4D4
:108390000B78491C0370401C012AE4D40978017051
:1083A000F8BD01E004C0091F0429FBD28B0701D5E9
:1083B0000280801CC90700D00270704700290BD0D2
:1083C000C30702D00270401C491E022904D3830750
:1083D00002D50280801C891EE3E70022EEE700221E
:1083E000DFE70000024670B50A4392072AD11E4D0E
:1083F000EE0104C808C9541B9443344017D0D0B2CE
:10840000D9B2401A2106014310D190B299B2401A54
:10841000210401430AD110021902000A090A401A74
:108420002102014302D1100E190E401A70BD9A426A
:10843000DFD010BA19BA884201D9012070BD0020DE
:10844000C04370BD02780B78401C491C002A09D03B
:108450009A4207D102780B78401C491C002A01D0AF
:108460009A42EFD0D01A70BD010101010022030928
:108470008B422CD3030A8B4211D300239C464EE03F
:1084800003460B433CD4002243088B4231D30309FB
:108490008B421CD3030A8B4201D394463FE0C309AD
:1084A0008B4201D3CB01C01A524183098B4201D3C5
:1084B0008B01C01A524143098B4201D34B01C01AB0
:1084C000524103098B4201D30B01C01A5241C30828
:1084D0008B4201D3CB00C01A524183088B4201D397
:1084E0008B00C01A524143088B4201D34B00C01A83
:1084F0005241411A00D201465241104670475DE098
:10850000CA0F00D04942031000D34042534000221A
:108510009C4603098B422DD3030A8B4212D3FC22C3
:10852000890112BA030A8B420CD3890192118B4242
:1085300008D3890192118B4204D389013AD0921158
:1085400000E08909C3098B4201D3CB01C01A524113
:1085500083098B4201D38B01C01A524143098B42DC
:1085600001D34B01C01A524103098B4201D30B01C5
:10857000C01A5241C3088B4201D3CB00C01A5241EA
:1085800083088B4201D38B00C01A5241D9D24308D1
:108590008B4201D34B00C01A5241411A00D201460E
:1085A000634652415B10104601D34042002B00D578
:1085B0004942704763465B1000D3404201B500203A
:1085C000C046C04602BD70477047704730B503468D
:1085D000CA02400D1043164D164C0A1502D0204316
:1085E000002A06DBAA1A002A12DDD040FF2A0BDC83
:1085F00030BD5205520D01D140004008AA1A07D4DF
:10860000D0404042FF2A01DD002030BD0028FCDDC3
:108610004A00002B01D0012000E0002010180122A8
:108620005205D042F0D8C817C043604030BD0000AA
:108630001E040000000000801F22030C02D10F2244
:10864000000402D0030E03D004E00020014670476E
:108650000002083A030F01D10001121F830F01D15C
:108660008000921E002801DB4000521E12055118A6
:108670004205C012411810467047C10FC90700D00B
:108680004042012292071143D6E701218907D3E72F
:10869000F0B58B4C0F09254689B0BD437BD01D0931
:1086A0002646AE43FAD00E465E402740F60F3E43C4
:1086B000254071D024012142FBD0FF24AD19A40430
:1086C0002D1B039501252D05DB02DB0AC9022B4377
:1086D000C90A29431E010901040F130F0501214393
:1086E0001701880B820391432D098C46A90B1E4369
:1086F0008A039543B30B9A0396433F09BA0B94033D
:10870000A74302962E467E430497B6464E19D719C4
:108710000C460196544305977E43371B7646BF1B94
:108720003601B646BE0B361900967646BC0437199C
:10873000009C01D3641C00946400002F01D001262A
:108740003443029E049F754366467E43049676003A
:1087500034196E0034190094029C019E1C19664362
:10876000751BAE46069465464519059C05956C43F8
:10877000594375460891691A0191049E0146514377
:10878000A41B0491611A009C0791E10605D06109C0
:108790000122114302E072E06EE06109089D0027AA
:1087A0002C0A2D066918049D7C412A0A2D06691899
:1087B000019D6241AC0DAD026D185441079A910DB7
:1087C000920255196141029A644658435443069BEC
:1087D000059A5A43121A131B9A0E9B015B187A4191
:1087E000010B0005C3185141220A200644195A41C1
:1087F0009A4200D2491C01204002814203D3152332
:108800000226F64302E014230326F6432020C51A6D
:10881000A9401746AF40DA400A4320460399D840A2
:108820000914731819055118039A3843D207514097
:10883000AC4009D00122944006D30022401C514193
:10884000002C01D1400840001E4A934212D301225D
:1088500003989206904207DB0520400709181A4842
:108860000143C012414004E0032040070818C10F33
:10887000C907002009B0F0BD0020F107FAE705188C
:108880000C464C4111486D42A04115D394181A462C
:108890005A410E48644290410ED301204A004005DF
:1088A000824209D35A00824206D35940C90F084A6E
:1088B000C90700201143DDE700200649DAE7000080
:1088C0000000FF07FE070000FFFFFF7F0000E0FF42
:1088D0000000F07F0000F87FFFB504460D4681B030
:1088E000243000902168880604D51022E069914365
:1088F000216000E00120A84201DD471B00E00027C5
:108900000498A1697A191018081AA0612078C00685
:1089100002D42046C046C046002608E0039862689C
:10892000A168805D9047206A401C761C20620498F4
:108930008642F3DB2078C0060AD52046C046C046F2
:1089400006E06268A16830209047206A401C2062DF
:1089500038467F1E0028F4DC07E000986268A168B2
:10896000405D9047206A401C206228466D1E00280A
:10897000F3DC2046C046C0462078000602D502201F
:1089800005B0F0BD0120FBE7084B70B50D467B44F8
:1089900000F013F80446284600F022F8002802D020
:1089A0000020C04370BD204670BD0000B724000009
:1089B00001694A1C02610878704700B58FB00291C6
:1089C00000210591054901937944039111460490D2
:1089D0006846FFF743FC0FB000BD0000E5FFFFFF56
:1089E000C068802108407047754600F023F8AE4605
:1089F000050069465346C008C000854618B020B53A
:108A0000FFF708FC60BC00274908B6460026C0C531
:108A1000C0C5C0C5C0C5C0C5C0C5C0C5C0C5403D36
:108A200049008D4670470446C046C0462046FFF7C1
:108A30009AFB0000004870471829002001491820BF
:108A4000ABBEFEE726000200704700007CB500BF09
:108A500000200A49086000BF00BF09488068064638
:108A6000FFF70BFE04460022064BFFF711FE0191B3
:108A70000090FFF7ABFD044908607CBD0071004029
:108A800000750040008021401420002070B51720A0
:108A900003F04AFB0A4A01210A4800F0D7FD0446C8
:108AA00000BF2546002D06D000BF002211462846F3
:108AB00000F04AFD00BF00BF00F0D6F870BD000016
:108AC00011A40100ECDA0100F0B587B00026002007
:108AD0000690FF20013005900125002416E005983E
:108AE00003F062FB00280BD000BF564840682840C6
:108AF000002805D0059803F04FFB30462843064672
:108B00006D000598001D80B20590641C042CE6D30E
:108B1000FF207D3003F048FB00280AD0FF207D3085
:108B200003F03AFB0120C007064300BF4648006936
:108B300006903007000F00282AD00125002425E0E8
:108B40002846304000281FD000BF4048512109016D
:108B50004018A10040581F2109020840000A049053
:108B600000BF3A48512109014018A1004058032193
:108B700009040840000C0390204601F09FFC0746C2
:108B800003990498B84700BF6D00641C042CD7D328
:108B9000F00FC007002852D000244EE02C480057A8
:108BA000401C002848D02A48005D0490C021049849
:108BB00088430746384601F0C5FC029001F07EFC70
:108BC00003900398002836D0C021049808408011F3
:108BD00002900120B840054600BF0520000707218C
:108BE00009024018B9004058032109040840000C4C
:108BF000019006982840002802D00198022806D04B
:108C000006982840002815D10198032812D102980F
:108C100003280BD10198022801D1032000E0022093
:108C200000903846009903F05CFA00BF3846039A7A
:108C30000299904700BF00BF641C042CAED307B05C
:108C4000F0BD0000006300400005005000600040DF
:108C5000E827002008B503480088009000F088F954
:108C600008BD0000E2DA010008B503480068009082
:108C700000F07EF908BD0000E0DA010070B504469E
:108C80000D461646054806800548047068012918F7
:108C900000220448006800F055FD70BD0C20002043
:108CA0000E200020BCDA010070B5094A01210948F4
:108CB00000F0CCFC044600BF2546002D06D000BFC6
:108CC00000221146284600F03FFC00BF00BF70BDE7
:108CD000D98C0100BCDA010010B5044625480078A3
:108CE000030000F0A3FA082F050E172F20252A2FC6
:108CF00021490978C907C90F204A505C00F014FCCB
:108D000021E01D490978C907C90F1D4A505C00F0D0
:108D10000BFC18E018490978C907C90F194A505CBB
:108D200000F002FC0FE00121002003F035FF0AE013
:108D30000121084603F030FF05E00121022003F085
:108D40002BFF00E000BF00BF0B4800680E490988F8
:108D5000884203D30C480088002805D106480068E3
:108D6000401C0549086004E002F072FB0020024943
:108D7000086010BD0E20002010200020C3DA010082
:108D8000C5DA0100C7DA01000C200020C206D20EAD
:108D900001219140014A11607047000080E200E02B
:108DA000C206D20E01219140014A116070470000B5
:108DB00000E100E0C206D20E01219140014A11609B
:108DC0007047000000E200E010B5002819DA1A4AE6
:108DD00003071B0F083B9B089B00D2588307DC0E40
:108DE000FF23A3409A438B071B0E8407E40EA34086
:108DF0001A43114B0407240F083CA408A4001A517D
:108E000018E00E4A03231B02D21883089B00D25895
:108E10008307DC0EFF23A3409A438B071B0E8407B6
:108E2000E40EA3401A43054B032424021B198408B3
:108E3000A4001A5110BD00001CED00E000E100E0AC
:108E400010B5002819DA1A4A03071B0F083B9B08C4
:108E50009B00D2588307DC0EFF23A3409A438B0765
:108E60001B0E8407E40EA3401A43114B0407240F82
:108E7000083CA408A4001A5118E00E4A03231B0260
:108E8000D21883089B00D2588307DC0EFF23A3402F
:108E90009A438B071B0E8407E40EA3401A43054B2D
:108EA000032424021B198408A4001A5110BD0000D9
:108EB0001CED00E000E100E010B5002819DA1A4AC4
:108EC00003071B0F083B9B089B00D2588307DC0E4F
:108ED000FF23A3409A438B071B0E8407E40EA34095
:108EE0001A43114B0407240F083CA408A4001A518C
:108EF00018E00E4A03231B02D21883089B00D258A5
:108F00008307DC0EFF23A3409A438B071B0E8407C5
:108F1000E40EA3401A43054B032424021B198408C2
:108F2000A4001A5110BD00001CED00E000E100E0BB
:108F300070B50022FF2149310B48006800F002FCA7
:108F4000044600BF2546002D06D000BF0022114672
:108F5000284600F0F9FA00BF00BF0D200121814032
:108F6000024A916000BF70BDF0DA010000050050B8
:108F700031B51649684600780870684640784870F0
:108F8000172003F0EBF80020114908700F49097809
:108F9000C8037D21C900FFF773FA05460022294660
:108FA0000C48006800F0CEFB044600BF2546002DAB
:108FB00006D000BF00221146284600F0C5FA00BFC7
:108FC00000BF01200449087038BD00003220002095
:108FD00031200020ECDA01003020002010B5002004
:108FE000074908600021064841608160C160002097
:108FF000034940390860486004F0B2F910BD000030
:109000004011014010B50249024802F0DDF810BDE0
:10901000F02700200030004010B504F0B5F810BD76
:1090200070B50C480068002810D00A4800688047D6
:10903000044600BF2546002D06D000BF0022114681
:10904000284600F081FA00BF00BF01E002F05EF8A0
:1090500070BD00000021002010B502F0F5F80028D6
:1090600005D0074807494860C8130749886102F0DE
:10907000CFF8002802D001200449886010BD00000C
:10908000DFFF07C000050040006C00400006004004
:109090001FB5012149024A4803F0C8F800282FD023
:1090A000FF212531464803F0A3F8002828D0FF21EE
:1090B0002531434803F0A4F881218900404803F09A
:1090C000ABF84048407D002803D104213C4803F020
:1090D000B9F8022069460870394803F07FF8039018
:1090E0003848C17C684601723648C068019000204B
:1090F0003449C8740846016842686846904725E0CC
:1091000004212F4803F092F800281FD0FF210931D5
:109110002B4803F06DF8002818D003F0E5FB294830
:10912000C07C2849097D884210D12648407D00280E
:1091300003D10421224803F085F8812189002048C9
:1091400003F06AF81F49087D03F07CFCFF211D3104
:109150001B4803F04DF8002815D01A48807C1949A7
:10916000098A884202DD04F0A5F90CE0FF211D31D7
:10917000134803F045F81348807C002803D01149B8
:10918000887C04F023FAFF2145310D4803F030F8C4
:10919000002814D0FF214531094803F031F809486F
:1091A000407D002803D00021054803F04BF8054816
:1091B000C07C002803D00349087D03F043FC1FBD99
:1091C000002000400828002008B5034800880090CF
:1091D000FFF7CEFE08BD0000E6DA010008B503483F
:1091E00000680090FFF7C4FE08BD0000E4DA01004B
:1091F00010B501200A4949680140002901D0012128
:1092000000E00021012909D100BF00200902054A20
:109210008918086000BF04480068804710BD00003E
:1092200000030140000001409820002030B4744643
:10923000641E2578641CAB4204D3635D5B00E318B5
:1092400030BC18471D46F8E71CB5174903C9019102
:109250000090684602F06AFB08200102134A526837
:10926000FF231B029A431143104A5160002802D089
:109270000121116002E000210C4A116000BF0120B1
:109280000B49486000BF03210720FFF79DFD072021
:1092900001218140074A116000BF00BF012006493B
:1092A000086000BF1CBD0000CCDA01000075004062
:1092B0000073004000E100E000700040F7B582B0AC
:1092C000044616460025378800203080606B002851
:1092D0000CD0616B08783B463246039903F0DAFB09
:1092E0000546002D02D0284605B0F0BD206B0028B1
:1092F0000AD03B463246206B039904F080F80546BD
:10930000002D01D02846EFE72E20005D00280BD06D
:109310002E21085D3B463246039902F063F805466C
:10932000002D01D02846DFE72D20005D002809D060
:109330003A463146039800F09EFE0546002D01D0C6
:109340002846D1E7A078002809D03A46314603984C
:1093500000F0F0FA0546002D01D02846C4E7E07879
:1093600000280BD0E17848B23B463246039901F021
:10937000A3FC0546002D01D02846B5E7606800280B
:109380000CD00020616808563B463246039904F031
:1093900033F90546002D01D02846A5E7208900288D
:1093A0000DDD019700960622022120460830039B1E
:1093B00004F0B8FA0546002D01D0284694E7208A2B
:1093C00000280DDD0197009607220321204610306A
:1093D000039B04F0A7FA0546002D01D0284683E739
:1093E000208B00280DDD01970096152214212046C0
:1093F0001830039B04F096FA0546002D01D028464C
:1094000072E7206A00280AD03B463246206A039958
:1094100001F036FA0546002D01D0284664E7606A5F
:1094200000280AD03B463246606A039902F0E0F910
:109430000546002D01D0284656E72C20005D002867
:109440000ADD3B4632462046039903F03EFB0546C3
:10945000002D01D0284647E7207800280AD03B4657
:1094600032462046039902F0FFF90546002D01D04F
:10947000284639E7284637E70146C87804221040D5
:10948000002801D1072070470020FCE730B5ADB0BF
:1094900020A207CA0EAB07C36621684681850EA9C4
:1094A0000D910621018638211FA8FEF798FF0221A1
:1094B00018A80177002181770621C1770BA8289091
:1094C000382111A8FEF78BFF012110A881821449D1
:1094D0001691242102A8FEF782FF0121684601753A
:1094E00040200690002007900E4B02AA11A9009080
:1094F0001FA800F0C3FA044600BF2546002D06D081
:1095000000BF00221146284600F01EF800BF00BF31
:109510002DB030BD06090301060506070100000055
:109520000220002089C2010070B50546002408E031
:1095300028462041C107C90F204603F02DFB601CBF
:10954000C4B2032CF4DB70BD00BF00BF00BF00BF7E
:1095500000BFBFF34F8F00BF00BF00BF06480749E1
:10956000C86000BF00BF00BFBFF34F8F00BF00BF88
:1095700000BF00BF00BFFDE70400FA0500ED00E0FA
:109580000146C86888600020704770B504460D46E3
:10959000204601F071FB002805D02946204601F045
:1095A00061FB002070BD0520FCE70346002901D1C6
:1095B0000E207047002A03D0501E1040002801D012
:1095C0000920F6E71960501E988000209860D86046
:1095D00000BFEEE770B504460D46204601F04CFB97
:1095E000A188884205D82946204601F04FFB00207B
:1095F00070BD0420FCE70000F8B505460C4627784E
:109600000C21A068484306490E580648006800909F
:109610002A463946204608302369B047F8BD000085
:10962000EC280020C420002010B50446064800782D
:1096300014225043044A121D81182046FFF7DCFF14
:10964000042003F0D1FA10BD2028002010B50346F5
:109650000C460D480068002801D1082010BD002AE2
:1096600001D10720FAE7002B01D10720F6E718689F
:10967000007C002801D00820F0E719680020087459
:109680004C744A6100BFE9E7D0200020FFB581B0EB
:109690000E4614461F4620468107890F002901D136
:1096A000012100E00021002902D1072005B0F0BD12
:1096B000002C04D100201C4908600720F6E703F0C5
:1096C000E7F81A4807600320194908701648046033
:1096D000183400250CE0E900134A126888180021AC
:1096E0000170417086704460182171430C196D1C23
:1096F000032DF0DB00200F4908600F4908700F4967
:1097000008701420FFF742FB03211420FFF7D4FB5D
:109710001420FFF745FB019803F090F803F088F858
:10972000074908600020C1E7D0200020E820002081
:10973000CC200020D4200020E4200020E5200020C0
:10974000D8200020FEB504460D461746264612488E
:109750000068002801D10820FEBD002C01D108209E
:10976000FAE7052D01D20720F6E77069002801D13C
:109770000820F1E7707C012801D1284600E0002094
:10978000029004F0A5F8009701902A463146029B0A
:1097900003F09AFDE0E70000D020002070B50446F9
:1097A00025460B480068002801D1082070BD002C18
:1097B00002D06869002801D10820F7E7002028744A
:1097C00004F086F80646294603F0AAFDEEE70000FD
:1097D000D020002010B502F05DFB002010BD00007D
:1097E00010B50948FFF7CCFE0446002C01D02046F6
:1097F00010BD0648FFF7C4FE0446002C01D02046E9
:10980000F6E70020F4E70000F828002008290020EF
:1098100070B504460A4801F034FA0949898888423B
:1098200009D10121074802F05DFA0546002D01D05B
:10983000052070BD00BF21460148FFF7A6FEF8E7EE
:10984000F8280020FE200020FFB589B004460D4610
:10985000174627480760002D02D107200DB0F0BD44
:10986000A88882B223482968FFF79FFE0646002E8B
:1098700001D03046F2E7A88982B21F48A968FFF7F5
:1098800094FE0646002E01D03046E7E720221B4911
:1098900001A8FEF78FFCA06807902079002801D06E
:1098A000012000E000206946087608A90C9808709D
:1098B0006079002801D00E2000E00020694648763B
:1098C000E0780390A078049020780290607801906E
:1098D0000B4901A802F0C6F90646002E01D0304619
:1098E000BCE702F06FFA0121064802F0FBF9B5E788
:1098F000F8200020F8280020082900207CDB010047
:10990000E1D60100FE20002070B50446074804702F
:10991000012102F065FA0546112D04D121460448C3
:10992000FFF758FE0546284670BD0000FD200020C8
:1099300008290020F8B505460C4617462088001D6A
:10994000B84201D90C20F8BD684679DF0646002EE2
:1099500001D03046F7E70320218868542088401C56
:1099600020801920218868542088401C208020886D
:1099700041196846008803F04FFF21884018208075
:109980000020E0E770B50446206802F09EFB2068E6
:1099900002F0F4FB0021606802F07EFBA06914492C
:1099A000052212028918486200BF607D217D0246AF
:1099B0000A430F4B05252D025B19DA6600BF0C48E0
:1099C0006268216802F041FC207D01280ED100214F
:1099D000A06802F061FBE06802F077FBE06802F04B
:1099E000CDFB0348A268E16802F00DFC70BD0000E9
:1099F00000200040F3B593B00D461F211291119144
:109A00001398002814D01398FFF736FD0446002C55
:109A100002D0204615B0F0BD12AA09A91398FFF78D
:109A20004DFC0446002C01D02046F3E709AE02E0CD
:109A3000002600201290002D13D0284603F034F9A0
:109A40000446002C01D02046E4E711AA01A92846CB
:109A5000FFF734FC0446002C01D02046DAE701AFC2
:109A600002E000270020119010A88088C3B210A83F
:109A70000089C1B23A46304672DFCBE7F8B50446FA
:109A80000F4615461E46002C01D0002D01D10E2098
:109A9000F8BD0020484908704848066048490698C3
:109AA0000860242229464748FEF784FB00F022F98B
:109AB0004548464908604648886038214548FEF7D1
:109AC0008EFC207843490870A0788870E078C870D0
:109AD00060784870626920694A6108610846E268F6
:109AE000A168C2608160E269A169C2618161606A46
:109AF00000281BD038483749486238498160606A7D
:109B000000883449496A0880606A80883149496A16
:109B10008880002005E0616A8968095C2F4A115439
:109B2000401C2C49496A89888142F4D8A06A0028DF
:109B300024D02B492B488160264988622849254832
:109B4000806A8160A06A80882249896A8880A06AC8
:109B500000882049896A0880002005E0A16A896898
:109B6000095C1F4A1154401C1A49896A898881423C
:109B7000F4D82C20015D174820300173206A00289A
:109B80000BD0194813490862206A4088096A488046
:109B9000206A00880F49096A08806068002804D09C
:109BA00012480C4948606068486039460948FFF728
:109BB00021FF009000986BE7742000206C200020AB
:109BC00070200020A0260020D4260020C4260020DB
:109BD000F4260020682600201427002020270020DB
:109BE0004C27002040270020782000207C200020E7
:109BF00070B504462088102804D0112806D01928F2
:109C000069D11AE0A0883549088065E00020344910
:109C10000870A0883149098888420DD1012000F0E0
:109C200071F80546002D07D02E480068002803D0A3
:109C300028462C49096888474EE0A079002849D178
:109C400029480078012806D0022813D0032820D004
:109C500004283DD12FE0022000F054F80546002DE5
:109C600007D020480068002803D028461D4909680D
:109C700088472EE0032000F045F80546002D07D068
:109C800018480068002803D0284616490968884704
:109C90001FE0032015490870042000F033F8054642
:109CA000002D07D00F480068002803D028460D4932
:109CB000096888470DE000200C4908700C480068CE
:109CC000002804D00846007809490968884700E060
:109CD00000BF00BF00E000BF00BF70BD7E200020BD
:109CE00075200020702000207420002068200020B3
:109CF0006C20002010B507210148FEF76EFB10BD57
:109D00006120002030B587B00546A24805700020CC
:109D10000090684602F05AFC0446082C02D100204C
:109D2000009004E0002C02D0204607B030BD00981F
:109D3000002804D00120984908700020F5E7FFF7BB
:109D4000D9FF96484078002803D09248007801282F
:109D500007D092488078002812D08E4800780228D8
:109D60000ED18F480068002807D001208D49087067
:109D700008208B490968884702E00020894908705B
:109D80008448007801280BD184484078002804D00A
:109D9000854802F08FFB002802D102207D4908701F
:109DA0007C48007802280BD17C488078002804D0B9
:109DB0007D4802F07FFB002802D10320754908701E
:109DC0007648007B002806D172480078032802D12B
:109DD0000420704908707148007E002808D16D4841
:109DE0000078042804D100206A4908706F4908707F
:109DF0006B480068002817D066480078032803D015
:109E00006448007804280FD16448007800280BD0FB
:109E100067480078002807D10120664908700720AC
:109E20005F490968884702E00020624908701821EC
:109E300001A8FEF7D4FA00216846017100200290C3
:109E4000684601730020049052480078012806D02B
:109E5000022811D0032823D0042879D150E0524899
:109E6000401E02900121684601710021C182818259
:109E700001204E49087075E04B48401E02900121B8
:109E8000684601714548008981B26846C1824348ED
:109E9000808881B26846818202204449087061E06E
:109EA0003E48808A81B26846C1823C48008A81B2BD
:109EB00068468182404803F0F5FD00281CD03748F1
:109EC0000078002818D03A480078002814D10220E1
:109ED000694608733848049004203849C870002146
:109EE0003648FFF787FD0446002C01D020461CE7CA
:109EF00005202E49087002E003202C49087031E04B
:109F00002648808B81B2684681822448008C81B2C9
:109F10006846C182284803F0C5FD00281DD01F48AF
:109F20000078002819D022480078002815D1022096
:109F3000694608732048049004202049C870002115
:109F40001E48FFF757FD0446002C02D02046ECE6E1
:109F500007E006201549087002E004201349087044
:109F600000E000BF00BF0B480078002806D001A821
:109F700073DF0446002C01D02046D6E6084800686E
:109F8000002804D00948007805490968884700205E
:109F9000CBE600007420002060200020A0260020D6
:109FA0006C20002077200020622000206820002004
:109FB0007520002076200020C4260020682600207E
:109FC00070B505461C2229461448FEF7F3F8002018
:109FD00013490870286800280BD008221148296806
:109FE000FEF79EF90F487ADF0446002C08D0204681
:109FF00070BD0C487BDF0446002C01D02046F7E7FB
:10A000000020C04308490880002008490870084A19
:10A0100000210848FFF71AFBEAE700006C27002040
:10A0200094200020802000208A200020882000200A
:10A0300035D8010014DB010010B504462088102833
:10A0400006D0112808D012280ED0502810D107E0D1
:10A05000204602F08FF90CE0204602F0ADF908E04E
:10A06000204602F0CFF904E0204602F077F900E044
:10A0700000BF00BF10BDFEB505460C461746208840
:10A080000930B84201D90C20FEBD684671DF064692
:10A09000002E01D03046F7E7082021886854208838
:10A0A000401C20801B20218868542088401C208070
:10A0B00021884819062200A90131FEF731F92088CC
:10A0C000801D208068460078002802D121886854CD
:10A0D00002E00120218868542088401C2080002054
:10A0E000D2E7000010B504462046FFF7A5FF214641
:10A0F000044800F04BF8204602F0D4F82046FFF761
:10A1000077FD10BD1821002070B586B004460E46BC
:10A110001D4B0FCB01AD0FC5002C01D0002E02D17D
:10A120000E2006B070BD0020C043A0823068A06140
:10A130000020A075214601A863DF0546002D01D04F
:10A140002846EEE721786846817501218182A21CAC
:10A1500005A90120A0DF0546002D01D02846E0E733
:10A160003146204602F0DCFB0546002D01D0284692
:10A17000D7E73146204603F0B9F90546002D01D056
:10A180002846CEE70020CCE718DB010070B5054675
:10A190000C46002D01D0002C00D170BD2088102865
:10A1A00004D0112807D050280FD109E021462846B5
:10A1B00002F0FEF80AE02146284602F01FF905E009
:10A1C0002146284602F04CF900E000BF00BF00BF66
:10A1D000E3E700007CB500BF0023482223490820A4
:10A1E00002F022FD054600BF2E46002E06D000BF1D
:10A1F000002211463046FFF7A7F900BF00BF00BF9D
:10A2000000200090019069460870684660DF0446AF
:10A2100000BF2546002D06D000BF0022114628466B
:10A22000FFF792F900BF00BF114802F0F1FC0446AD
:10A2300000BF2546002D06D000BF0022114628464B
:10A24000FFF782F900BF00BF0A4802F021FD044673
:10A2500000BF2546002D06D000BF0022114628462B
:10A26000FFF772F900BF00BF7CBD00008C23002007
:10A27000E5A0010085D00100F8B504460E46002295
:10A280000121C9035B480068FFF75CFA054600BF7F
:10A290002F46002F06D000BF002211463846FFF798
:10A2A00053F900BF00BF00205349086053480078AD
:10A2B0000A2809DB524800683C2800D8F8BD002075
:10A2C0004E4908704E49086020460F380300FEF7DB
:10A2D000ADFF05040E18222C3700312149480278C1
:10A2E0000078401C474B18704748815430E03221B9
:10A2F000444802780078401C424B18704248815410
:10A3000026E033223F4801780078401C3D4B18700E
:10A310003D4842541CE034213A4802780078401C01
:10A32000384B18703848815412E0374800210160DA
:10A3300000203449087032490860FEF78BFC07E0C2
:10A3400000BF002211462046FFF7FEF800BF00BF05
:10A3500000BF2E48007B2B490978884208DDFEF7B4
:10A3600083FC03227D21C9000720FEF787FC3EE025
:10A3700026492548FEF736F800280BD1FEF72EFFB8
:10A380002248002101804180FEF7D2FD00201B49B8
:10A3900008702CE01D49091D1B48FEF723F8002812
:10A3A0000BD1FEF71BFF194800218180C180FEF709
:10A3B000BFFD00201149087019E014490831124806
:10A3C000FEF710F800280BD1FEF708FF0F48002118
:10A3D00001814181FEF7ACFD00200849087006E0CC
:10A3E000FEF7F2FE05480078401C0449087000BFE3
:10A3F00064E70000FCDA0100402000204920002032
:10A400003C20002048200020442000204A2000203A
:10A4100010B504461D480078401C1C4908701C48B3
:10A420004078002803D00846007808280CDD194839
:10A430000068FFF7B3F9172001F076FE00201649F7
:10A440000870124908701FE0114840780F490978D8
:10A450000822521A012191400840002811D00C48CE
:10A4600040780A4909780822511A012901DD0121A1
:10A4700000E00021884306494870172001F06EFE75
:10A4800002E0172001F050FE10BD00003120002036
:10A4900032200020ECDA0100302000200021C943E6
:10A4A0008200054B9950042804DB0B46011F024A29
:10A4B0004032535470470000A8270020014688000E
:10A4C000014A105870470000A8270020F7B585B052
:10A4D0000B460020C0430490002A01D0002000E079
:10A4E00004200390002A01D0042000E008200290FC
:10A4F00003991EE08800124C2058401C002817D1F8
:10A500000846059C0093019246B20D4D20352E550C
:10A5100085000B4E009B7351019A002A04D166B24C
:10A52000051F074F40377E5500BF48B2049003E037
:10A53000491C02988142DDD300BF049808B0F0BDE9
:10A54000A82700200146014840567047C827002030
:10A55000F0B587B03E480078142148433C49091DB6
:10A560004418E7680C21A06848433A49401800891C
:10A5700006900C21A0684843364940184089059050
:10A580000C21A0684843334940184068049002F009
:10A5900049F8014602903846FDF768FF002901D1CD
:10A5A000012000E000200390059906984843049993
:10A5B00046186088C019A1884518002026490860FF
:10A5C0000398002804D002F02DF8618888420AD050
:10A5D0000398002804D0B54202D1A088002802D0F8
:10A5E000A06802280CD102F01DF8014602903846FE
:10A5F000FDF73CFF19490860032002F0F5FA24E05A
:10A6000002F010F80190A188C8190199FDF72EFFFA
:10A6100088081349086002F005F8014601902846B1
:10A62000FDF724FF002901D1012000E00020029065
:10A63000B54206D00298002803D1B1B2A8B202F008
:10A6400037FD022002F0D0FA00BF07B0F0BD0000D5
:10A6500020280020EC280020B4200020B820002072
:10A66000B020002010B5084800781421484306495E
:10A67000091D44182078042802D000F063F801E096
:10A6800002F04AFC10BD00002028002010B50F4841
:10A690000078142148430D49091D441860880C496D
:10A6A00008602078012804D0032805D0042809D1A7
:10A6B00005E002F031FC06E0FFF74AFF03E003F09B
:10A6C000B4F800E000BF00BF10BD0000202800204B
:10A6D000C420002010B503484078002801D0FFF7BF
:10A6E000D5FF10BD202800200023142141430C4A2F
:10A6F00053541421414389184B80012314214143B1
:10A7000089188B600023142141438918CB601421E0
:10A71000414389180B611421414389188B8070478C
:10A720002428002010B50020054908704870002436
:10A7300003E02046FFF7D8FF641C0A2CF9D310BDB4
:10A740002028002010B50848007814225043064AFB
:10A75000121D81180020FEF74FFF00F007F80020BF
:10A7600002F042FA10BD00002028002010B509496F
:10A770000878FFF7B9FF07484078401E0549487040
:10A7800008460078401CC0B208700A2801D1002099
:10A79000087010BD20280020FEB51F480068002862
:10A7A00036D01D480068056802F042F801901B4849
:10A7B00004682146019802F0A7FCC61C18480078DE
:10A7C000002801D102F046F8AE4201D2284600E04E
:10A7D000304604192402240A204602F023F802F02D
:10A7E00027F800900199009802F08EFCC71C2046C3
:10A7F000019902F089FC874209D902F019F807464D
:10A8000002F010F82F20FDF7C5FC02F0F3FD01E087
:10A8100002F03EF8FEBD0000D4200020D820002029
:10A82000EC20002001460888062808DB0888192249
:10A83000D201904205DD0888104A904201D00720DD
:10A8400070474888062808DB48881922D2019042C0
:10A8500005DD4888094A904201D00720F0E70888C2
:10A86000064A904208D04888904205D008884A8815
:10A87000904201DD0720E3E70020E1E7FFFF000051
:10A88000FFB581B006460D4614462088801D049908
:10A89000884202D90C2005B0F0BD3046FFF7C2FF58
:10A8A0000746002F01D03846F5E705202188685477
:10A8B0002088401C20801220218868542088401C59
:10A8C000208022885119308802F0A6FF2188401884
:10A8D000208022885119708802F09EFF218840183C
:10A8E00020800020D7E710B5044600BF00221146A3
:10A8F0002046FEF729FE00BF10BD000030B587B02E
:10A900001C216846FDF76BFD002000900520C00368
:10A9100001900F200004029003216846017300217A
:10A92000C18101740A4805900A4806906846FFF7FD
:10A9300047FB044600BF2546002D06D000BF00227D
:10A9400011462846FEF700FE00BF00BF07B030BD2D
:10A9500029C30100E7A8010038B51F4800F046FCF4
:10A96000002829D11D48007800280AD01C484069D9
:10A97000002820D000200090194841696846884787
:10A9800019E018480078002802D11548456801E010
:10A99000134885680022294613480068FEF7D2FE56
:10A9A0000446002C07D00E488069002803D00C48CC
:10A9B0008169204688470AE009484069002806D096
:10A9C00001200090064841696846884700BF002082
:10A9D0000249087038BD00008C200020942000201F
:10A9E0006C2700208820002014DB010010B51448DB
:10A9F0004068C105C90D002920D00A46103A50B25E
:10AA000000280DDA0E4B1C330407240F083CA40861
:10AA1000A4001B598407E40EE3401B069B0F0BE0C8
:10AA2000084B032424021B198408A4001B59840723
:10AA3000E40EE3401B069B0FD8B210BD0420FCE7D8
:10AA400000ED00E000E100E010B514484068C105E9
:10AA5000C90D002920D00A46103A50B200280DDA5C
:10AA60000E4B1C330407240F083CA408A4001B59F8
:10AA70008407E40EE3401B069B0F0BE0084B032406
:10AA800024021B198408A4001B598407E40EE34028
:10AA90001B069B0FD8B210BD0420FCE700ED00E0C0
:10AAA00000E100E010B51C480068082108400028BB
:10AAB0002FD11A480068401C1849086018480068DF
:10AAC000002803D0042002F08FFA24E000F0F2FB0B
:10AAD000002803D0022002F087FA1CE01148006829
:10AAE000002813D00C480078C007C00F002809D1F7
:10AAF000094800680121084307490860002002F066
:10AB000073FA08E0032002F06FFA04E002F040FA62
:10AB100001E002F04DFA10BDC8200020B82000204E
:10AB2000B0200020B420002010B50C480068082197
:10AB3000084000280FD10948006802210840002879
:10AB400005D0064800680121084304490860022036
:10AB500002F04AFA01E002F02BFA10BDC8200020F2
:10AB6000014614480078144A127890421DD01148CA
:10AB70000078401C0F4A107010460078022801D15E
:10AB8000002010700B48007880000C4A10580860B4
:10AB90000B4A086812688018094A1060104600685D
:10ABA0000002000A1060012070470020086000BF0A
:10ABB000FAE70000E4200020E5200020DC2000204F
:10ABC000D820002010B50D48006808210840002852
:10ABD00010D10B480068401C0949086000F06AFB6E
:10ABE000002802D1FFF73EFD06E00648007801F09C
:10ABF000FBFF01E000F0ECFD10BD0000C8200020CC
:10AC0000B8200020AC200020F0B50346002420E04E
:10AC1000134E306806689E4203D90668F61A06602D
:10AC20001BE006689B1B06683419002606600C4E64
:10AC300035680B4FC6693E60C668002E08D00E19F5
:10AC40003602360A4660C66886601668C6611560B8
:10AC500000BF034800680028DAD100BFF0BD000043
:10AC6000D4200020826883881A4003689A5C0A70A6
:10AC70008268521C8260704701468A68C868801AE0
:10AC8000704701468A68C868801A7047C26883881E
:10AC90001A4003689954C268521CC260704710B5CC
:10ACA0000446A079FF2802D0A07901F05FFA0020C5
:10ACB00060712168884710BD30B504461088C01CFB
:10ACC000984201D90C2030BD0220158848551088C3
:10ACD000401C10800120158848551088401C1080A9
:10ACE00015884C551088401C10800020EBE70000B0
:10ACF00010B50446002C02D0112C08D100E00AE067
:10AD000006480068082108430449086003E020461B
:10AD1000FEF78AFC00BF00BF10BD0000C820002065
:10AD200010B501F085FC044600F070F810BD00007D
:10AD300010B50C480068401C0A49086003280DD073
:10AD400009480078022804D00748007801F04CFF39
:10AD500007E00648007802F047F902E00D20FEF710
:10AD600063FC10BDBC200020AC200020AD200020E2
:10AD700010B50A480078012804D0022808D003281A
:10AD800009D102E002F0CEF806E0FFF71BFF03E076
:10AD900002F01EF900E000BF00BF10BDAC20002093
:10ADA00070B50446204628DF0546FFF7A1FF70BDB9
:10ADB00070B5049C012906D0022910D0032914D0B3
:10ADC000042918D105E0002A02D101250B4E357067
:10ADD00012E0002A02D10125094E35700CE0002A4C
:10ADE00002D10125074E357006E0002A02D1012567
:10ADF000054E357000E000BF00BF70BD1C20002074
:10AE00001D2000201E2000201F2000201CB5202116
:10AE1000684681801021C18003480090034968463C
:10AE200001F04AFC04461CBDB1AD01002820002001
:10AE3000F8B504460D46164632462946204629DF17
:10AE40000746FFF755FFF8BD70B504460D46E0B262
:10AE5000FEF75AFD204670BD3EB500BF684600783B
:10AE600001090901491C009168460078F0218843D6
:10AE70001030009000BF0A2216A168467CDF04460D
:10AE800000BF2546002D06D000BF002211462846EF
:10AE9000FEF75AFB00BF00BF002001900290102176
:10AEA000684681803C21C18000210181FF219131D0
:10AEB000418101A87ADF044600BF2546002D06D057
:10AEC00000BF002211462846FEF73EFB00BF00BF30
:10AED0003EBD00004F464F5F4F76736561730000C3
:10AEE00010B5002400BF08E0022005210907072251
:10AEF00012028918A2008850641C202CF4D3172059
:10AF000001F0D7F800210A2001F0B9F800210B2048
:10AF100001F0B5F8152001F0CCF8162001F0C9F8C1
:10AF20001C2001F0C6F803210F2001F0A8F803212E
:10AF3000102001F0A4F80321112001F0A0F8032152
:10AF4000122001F09CF80321132001F098F810BDA5
:10AF500030B585B000F05EFE044600BF2546002DEA
:10AF600006D000BF002211462846FEF7EDFA00BFCA
:10AF700000BF484800680490002069464874464A6B
:10AF800004A90F2000F0CCFD044600BF2546002D8B
:10AF900006D000BF002211462846FEF7D5FA00BFB2
:10AFA00000BF01210F2000F057FD3A48001D006846
:10AFB0000390002069464873374A03A9102000F027
:10AFC000AFFD044600BF2546002D06D000BF00227D
:10AFD00011462846FEF7B8FA00BF00BF0121102035
:10AFE00000F03AFD2B4808300068029000206946C6
:10AFF0004872294A02A9112000F092FD044600BFC0
:10B000002546002D06D000BF002211462846FEF737
:10B010009BFA00BF00BF0121112000F01DFD1D485B
:10B020000C30006801900020694648711A4A01A955
:10B03000122000F075FD044600BF2546002D06D005
:10B0400000BF002211462846FEF77EFA00BF00BF6F
:10B050000121122000F000FD0E4810300068009021
:10B060000020694648700C4A132000F059FD044640
:10B0700000BF2546002D06D000BF002211462846FD
:10B08000FEF762FA00BF00BF0121132000F0E4FCCC
:10B0900005B030BD00DB010079A2010010B51848F1
:10B0A000006808210840002826D100F02FF9002868
:10B0B0000CD00020134908601148006801210843A2
:10B0C0000F490860002001F08FFF17E000F0F2F850
:10B0D000002806D000200B490860022001F084FF00
:10B0E0000CE009480068002803D0032001F07CFF31
:10B0F00004E001F04DFF01E001F05AFF10BD000037
:10B10000C8200020B0200020B4200020F8B5294835
:10B110000078002800D1F8BD27480068002801D138
:10B12000012000E00020054624480068002801D1E5
:10B13000012000E00020064600BF002D14D1684623
:10B1400051DF0446052C01D101250CE0002C06D06E
:10B1500000BF002211462046FEF7F6F903E016492B
:10B1600000980968884700BF002E1AD1144800884B
:10B17000009069461348006861DF0446052C01D140
:10B1800001260DE0002C06D000BF0022114620460B
:10B19000FEF7DAF904E00B480068084909688847B7
:10B1A00000BF002D02D0002E00D000E0C5E700BF98
:10B1B00000BFB0E70421002014210020102100204E
:10B1C0000C2100200821002070B505460C46FF2107
:10B1D0000931284600F0FAFF2146284602F032F9EC
:10B1E000002802D12046FFF75AFD70BD014648886D
:10B1F000064A1288904206DB4888044A52889042E8
:10B2000001DC012070470020FCE7000080200020C6
:10B210000C48008CC0B2012812D10A48808C00076B
:10B22000000F00280CD10748806AF0210840402810
:10B2300006D10448C06A0840002801D101207047A7
:10B240000020FCE7C00F00F01948008CC0B20128B4
:10B250002CD11748808C0007000F002826D11448F5
:10B26000806AF0210840002806D11148C06A0840D1
:10B27000002801D1012070470D48806AF021084064
:10B28000102806D10A48C06A0840002801D10120D0
:10B29000F1E70748806AF0210840302806D10448C9
:10B2A000C06A0840002801D10120E4E70020E2E75D
:10B2B000C00F00F0F8B51248007814214843104937
:10B2C000091D4518EF6801F0ADF900906988C919AA
:10B2D000AA888918481E0099FDF7C8F8064609484B
:10B2E0000068B04207D307480068B04205D106485D
:10B2F0000068002801D1012400E000242046F8BDA8
:10B3000020280020B8200020B4200020F8B51048E4
:10B310000078142148430E49091D4518EE6801F0D4
:10B3200081F9009069888919AA888918481E0099AE
:10B33000FDF79CF8074607480068002805D0064836
:10B340000068B84201D1012400E000242046F8BD85
:10B3500020280020B4200020B820002070B50A4A20
:10B3600001210A48FEF772F9044600BF2546002D68
:10B3700006D000BF002211462846FEF7E5F800BFC0
:10B3800000BFFFF7E5FD70BD91B30100FCDA0100DD
:10B3900010B504460E4800780A2804DB0D48006802
:10B3A000401C0C4908600C480068401C0A490860B1
:10B3B0000846006864280AD9002008490870064930
:10B3C00008600349087006480068FEF7E7F910BDF9
:10B3D000492000203C200020402000204820002060
:10B3E000FCDA010030B504461088C01C984201D92F
:10B3F0000C2030BD0220158848551088401C108054
:10B400001C20158848551088401C1080012C06D03F
:10B41000022C08D0032C0AD0042C10D10BE0002001
:10B42000158848550DE001201588485509E002208F
:10B430001588485505E003201588485501E0072088
:10B44000D7E700BF1088401C10800020D1E7000023
:10B4500010B506480068FEF7A1F9002004490880ED
:10B4600004490870FEF760F810BD0000BCDA010066
:10B470000C2000200E200020F8B521480068009024
:10B48000204806782EE0F0001F4909684418257806
:10B4900024E01820684361680F18681CC5B2A078C2
:10B4A000A84200D100253878022802D0032812D102
:10B4B00003E0786801F0D0FE0EE007E0104908686C
:10B4C000002101740E4AC169116000BF0C48006878
:10B4D0000028F3D100E000BF00BF00BF6078A842A1
:10B4E000D7D100BF3046711ECEB20028CBD1044860
:10B4F00001680098814201D00120F8BD0020FCE7DE
:10B50000D4200020CC200020D0200020FEB506460C
:10B510003C48006801903C480078009063E0009847
:10B52000C0003A490968451856E0002E02D034465A
:10B53000E66924E02978182359436A685018297865
:10B54000491C29702978AA78914201D100212970DB
:10B5500044680178012902D1217C002900D03BE018
:10B5600081686160C168A1600169E1604169A161B0
:10B5700027490978002901D00021616000BF2549D1
:10B5800060680968401A0002000A2349884208D20C
:10B5900020496068096801F0B7FDA1684018206083
:10B5A0000FE01C486168006801F0AEFD0746A06826
:10B5B000B84203D9A068C01B206001E000202060D1
:10B5C00000BF00206060A060012020740020E061C6
:10B5D000204601F00BFE00BF002EA6D12878697826
:10B5E0008842A2D100BF0098411EC9B20091002834
:10B5F00095D1044801680198814201D00120FEBD27
:10B600000020FCE7D4200020CC200020D020002007
:10B61000ED200020D8200020FFFF7F007CB5162001
:10B6200000F08AFD0D2000F087FD1B4A01211B4818
:10B63000FEF70CF81A48006801900020694648712E
:10B64000184A01A90A2000F06BFA044600BF2546FB
:10B65000002D06D000BF002211462846FDF774FFDA
:10B6600000BF00BF0E48001D006800900020694622
:10B6700048710C4A0B2000F053FA044600BF2546DF
:10B68000002D06D000BF002211462846FDF75CFFC2
:10B6900000BF00BF7CBD0000A9B60100F0DA0100C8
:10B6A000F4DA0100FDCF010010B504462B48007804
:10B6B000002802D001283ED113E029480088401C10
:10B6C0002749088008460088142809DD01202349FD
:10B6D000087000202249088001210A2000F0BCF9EE
:10B6E00039E00A2000F030FD002811D11C48008804
:10B6F000401C1B49088008460088FF21F53188421C
:10B7000018DDFF201549087000201649C87011E0A7
:10B7100015480068FEF742F80020104908701049EB
:10B7200008800D2000F008FD0A2000F065F90120D6
:10B730000C49C8700FE00C480068FEF72FF8002095
:10B7400006490870064908800D2000F0F5FC0A2023
:10B7500000F052F900BF00BF10BD000034200020EF
:10B760003620002038200020F0DA010001F0F2FC41
:10B77000FFF7B6FB02F014F8FDF766FDFDF786F95A
:10B78000FFF7CEFA02F05EF9FDF78EFAFFF7E6FD5D
:10B79000FFF744FFFEF71EFDFFF75EFB01F0E0F947
:10B7A000FDF774FEFFF7AAF80320FEF7ABFA044694
:10B7B00000BF2546002D06D000BF002211462846B6
:10B7C000FDF7C2FE00BF00BF00BF00F0EFFEFCE7C8
:10B7D00010B50548006808218843034908600348FC
:10B7E000007801F001FA10BDC8200020AC20002034
:10B7F000FFB581B005460E461446A888871C2088F0
:10B80000801CC1190498814202D90C2005B0F0BDFA
:10B81000FE2F01D90C20F9E7781C2188705420886C
:10B82000401C2080FF20218870542088401C2080EC
:10B8300022889119288801F0EFFF21884018208084
:10B84000A88800280EDDA868002801D10720DDE7C0
:10B85000AA8823889819A968FCF762FD2088A9881E
:10B86000401820800020D1E7FFB583B005460F4681
:10B8700014462878012805D16878002802D10720CD
:10B8800007B0F0BD2088801C0699884209D8287826
:10B89000012808D12088801C6978411806988142C7
:10B8A00001D90C20ECE721880698401A801E86B248
:10B8B00001962188891CC81901A97DDF0290029890
:10B8C000002801D00298DBE72878022806D16846D4
:10B8D0008088B04202DC092000900BE00820009034
:10B8E0002878012805D16878B04202DC6878019098
:10B8F00000E0019668468088FE2801D90C20BFE749
:10B9000068468088401C218878542088401C20800C
:10B910002188009878542088401C2080218868461F
:10B920008088081820800020AAE7000070B504462F
:10B93000002520788007800F0543607880001C2157
:10B940000840054360684001602108400543C90282
:10B9500060680840002802D0606808400543002065
:10B9600000F00CF804484068FF2109020840284311
:10B970000149486070BD0000007500400102084A9E
:10B980005268FF231B029A431143054A5160002865
:10B9900002D00121116002E00021014A11607047CC
:10B9A0000075004001B505E00098401E0090034876
:10B9B000FCF7E0FB00980028F6D108BDE703000083
:10B9C00070B504460D4629462046FDF739FA00BFFA
:10B9D000E106C90E012088400549086000BF00BF8C
:10B9E000E106C90E012088400249086000BF70BD11
:10B9F00080E200E000E100E070B50546284600F076
:10BA000075FD002804D00021284600F06AFB1EE0E6
:10BA1000284600F077FD002819D02846FEF792FD51
:10BA2000044620460A495122120189188200895889
:10BA300049084900064A51231B01D2188300D150FE
:10BA400000BF0120A0400349886000BF00BF70BD57
:10BA50000060004000630040FEB505460E462846E3
:10BA600000F044FD002820D02846FEF76BFD001FA3
:10BA700028490F5CBC11032C0CD100BF264800697B
:10BA80000121A9400840002801D0032000E0022045
:10BA9000019005E0012C01D1022000E0032001907B
:10BAA0002846019900F01DFB32E0284600F02AFDEF
:10BAB00000282DD02846FEF745FD0446A000FF30A3
:10BAC000013080B201902046144951221201891898
:10BAD0008200895801221143104A51231B01D218B8
:10BAE0008300D15000BF019800F056FB002E0ED00D
:10BAF0002846FEF727FD0090FEF7E0FC0746002FE2
:10BB000004D00121A140084600F05AFB00BF00BF4D
:10BB1000FEBD0000E8270020000500500060004046
:10BB2000F7B584B004460E4600200390204600F08E
:10BB3000CFFC002802D00820039060E0F278204675
:10BB40000699FEF7C3FC0546681C002854D0B0785F
:10BB5000002810D000BFA1002A4A891809680222D3
:10BB60009143084605210907072212028918A200FD
:10BB7000885000BF0BE07778002000903B460246DB
:10BB800001460190204600F048FA00BF00BFF0785F
:10BB9000002826D037781C48512109014018A900F7
:10BBA00040581A4908401849512212018918AA0020
:10BBB00088501548512109014018A9004158200218
:10BBC0001F22120210403A0403231B041A401043A0
:10BBD00001430D48512212018018AA00815000BF74
:10BBE0000CE0281F0A49085C31788901084342B2F9
:10BBF000281F07490A5401E00420039000BF03985E
:10BC000007B0F0BD0007005000600040FFE0FCFFFF
:10BC1000E827002010B512480079002801D008203C
:10BC200010BD002404E0204600F07CFC601CC4B27F
:10BC3000202CF8DB002404E02046FEF72FFC601CDB
:10BC4000C4B2082CF8DB03210620FFF7B9FE01205F
:10BC5000C00700F0B5FA0121014801710020DFE7BB
:10BC6000E827002070B504460D461A48807D00285C
:10BC700001D0082070BD002C00D1174C2046FDF7E4
:10BC800081FE1448456013492069086008464068F1
:10BC900000280AD0267F1149114800F0C2FA314627
:10BCA0000220FFF78DFE00BF00BF00BF00BF0420D1
:10BCB0000B49052212028918086000BF00BF00204E
:10BCC0000449C8748874012088750020487500BF35
:10BCD000D0E700000828002028DB010080000200D7
:10BCE00000200040F3B581B006463448C07C0028EF
:10BCF00001D01120FEBD31490298C8740846C660C3
:10BD0000002008750846407D002801D100F0B0FEF3
:10BD10002A48406800284AD100BF00BFFF212531D2
:10BD2000274800F065FA0546FF210931244800F054
:10BD30005FFA0746FF214531214800F059FA0446D1
:10BD4000002F03D1002C01D1002DE7D0002D01D10F
:10BD5000002C00D007E000F0C7FD1848C07C174950
:10BD6000097D8842D9DC00BFFF214531144800F02D
:10BD700047FAFF212531124800F042FA00200F490E
:10BD8000C874002D01D00320B4E7002C01D00F208F
:10BD9000B0E70A48407D002804D00021084800F0A0
:10BDA00051FA03E00421064800F04CFA04E0812136
:10BDB0008900034800F035FA00209BE7082800209E
:10BDC0000020004010B50548407D002804D100F057
:10BDD0004FFE01200149487510BD000008280020D1
:10BDE00070B504460D4600262848807C002801D006
:10BDF000112070BD25488574846000202349088285
:10BE0000FF211D31224800F0FBF90821204800F0F5
:10BE100019FA01F04FFB1D484068002833D115E0A6
:10BE200000BFFF211D311A4800F0E2F9002805D1BA
:10BE30001648008AFF2101318842F2D11348008A56
:10BE4000FF210131884201D001F034FB0F48807C92
:10BE50000E49098A8842E3DC0C48008AFF2101313F
:10BE6000884201D10F260BE000BFFF211D31084899
:10BE700000F0BEF90028F8D00C21054800F0E2F9E6
:10BE80000020024988743046B3E7000008280020EB
:10BE90000020004010B500BF00BF0020104905225F
:10BEA00012028918086000BF00BF0E4840680028D1
:10BEB0000ED000BF0C490A4800F0AEF9022000BFC6
:10BEC00001218140094A116000BF00BF00BF00BFCF
:10BED00000F030FB002003498875486010BD000069
:10BEE00000200040082800208402020080E100E0D9
:10BEF000FEB5044600200190FEF778FD0090009802
:10BF0000012813D001A836DF0646022E01D172B6F1
:10BF10000BE000BF3746002F06D000BF00221146BD
:10BF20003846FDF711FB00BF00BF00BF184800688E
:10BF3000082812D216480078207015480068401C66
:10BF4000134908602078134989680122824011430F
:10BF5000104A916000BF002500E0042500980128E8
:10BF600013D062B66846007937DF0646022E0BD042
:10BF700000BF3746002F06D000BF002211463846CA
:10BF8000FDF7E2FA00BF00BF00BF2846FEBD00007B
:10BF9000A02000200005014070B504460D46114860
:10BFA000056011480078002803D101200E4908706F
:10BFB00001E0082070BD002C00D10C4C20780C4909
:10BFC000C86000BF6168C8037D21C900FCF74EFA54
:10BFD00006460748466000BF217A1020FFF7F0FCB4
:10BFE0000020E7E7982000209C20002048DB01008B
:10BFF00000050140F0B5059C55000D439E003543FA
:10C0000026023543069E36043543052636070727A4
:10C010003F02F6198700F551F0BDF0B5059C5500BB
:10C020000D439E00354326023543069E36043543B4
:10C030000526360707273F02F6198700F551F0BDA0
:10C04000F0B5059C55000D439E003543260235434F
:10C05000069E360435430526360707273F02F619A4
:10C060008700F551F0BD1CB5044600200090034642
:10C070000122014601902046FFF7E2FF1CBD7CB57E
:10C0800005460C46002000902346024601460190DA
:10C090002846FFF7AFFF7CBD7CB505460C46002067
:10C0A000009023460246014601902846FFF7C8FF4C
:10C0B0007CBD1CB5044600200090034601221146B9
:10C0C00001902046FFF796FF1CBD1CB504460020DA
:10C0D000009003460122114601902046FFF7B0FF71
:10C0E0001CBD10B50522120707231B02D2188300BE
:10C0F000D25803231B049A4305231B070724240259
:10C100001B1984001A510522120707231B02D2189B
:10C110008300D2580B041A4305231B07072424026B
:10C120001B1984001A5110BD01218140014AD160C0
:10C13000704700000005005001218140014AD16094
:10C140007047000000050050014603480069C840E0
:10C15000C007C00F7047000000050050012181405A
:10C16000014A9160704700000005005001218140A4
:10C17000014A916070470000000500500121814094
:10C18000014A9160704700000005005001460148D7
:10C19000081870470060004010B504462046FFF7BD
:10C1A000F5FF0021016010BD10B504462046FFF7E1
:10C1B000EDFF0068012800D110BD0020FCE7000061
:10C1C000014948607047000000630040002242506F
:10C1D0007047052212028218D16170470146092278
:10C1E000D2018A1810680922D2018A18106070479B
:10C1F00002465058002801D0012070470020FCE77B
:10C2000000224250704705231B02C3189960052382
:10C210001B02C3181A617047032212028218916030
:10C2200070470322120282185160704702460320B1
:10C230000002101840680840002801D00120704713
:10C240000020FCE701224250704705231B02C3185F
:10C25000D96005231B02C3185A617047F8B5074619
:10C260000D461646002404E0295D05A0FBF7E8FF13
:10C27000641CB442F8DB03A0FBF7E2FFF8BD00004A
:10C28000257800000D0A000010B50446002C02D0ED
:10C29000032C03D103E000F097FC00E000BF00BFD7
:10C2A00010BD000070B505462888102806D011285A
:10C2B00008D013280BD0522831D11CE0A888194986
:10C2C00008802DE00020C0431649088028E00023A4
:10C2D0001A468521134800887FDF044600BF2646A2
:10C2E000002E06D000BF002211463046FDF72CF983
:10C2F00000BF00BF14E000231A4619460948008811
:10C30000A9DF044600BF2646002E06D000BF00224B
:10C3100011463046FDF718F900BF00BF00E000BF2E
:10C3200000BF70BD0020002070B5054628780028A9
:10C3300010D13B210848008876DF044600BF26461E
:10C34000002E06D000BF002211463046FDF7FCF853
:10C3500000BF00BF70BD00000020002010B50446E3
:10C360000822A11D0248FBF7DBFFFEF7F5FA10BD1E
:10C370008C20002010B50446A088094908800822B6
:10C38000214616310748FBF7CBFF0020064908700D
:10C390000648C089002801D1FEF7DEFA10BD000072
:10C3A0008A2000208C200020882000206C2700207C
:10C3B0008A8882827047000070B505460020C0431D
:10C3C0000A49088000200A4908700A480068FDF7F9
:10C3D000E5F90446002C07D007488069002803D0FF
:10C3E000054881692046884770BD00008A200020EA
:10C3F0008820002014DB01006C2700200022D2439B
:10C400008282704770B50546AC1D20881249C989E3
:10C41000884220D1208B02281DD100BF00BFA17E01
:10C42000E27E120211430846C107C90F002902D05B
:10C43000FEF792FA0FE009480068FDF7AFF90646EB
:10C44000002E07D004488069002803D00248816983
:10C450003046884700BF70BD6C27002014DB010008
:10C4600070B504460E46B51D2988208A814213D135
:10C47000288B022810D100BF00BFA97EEA7E1202DD
:10C4800011430846C107C90F002902D00120A07539
:10C490000FE00020A0750CE02888A188884208D110
:10C4A000A069002805D02A8B29461A312046A369A5
:10C4B000984770BD0246002105E0505C002801D07D
:10C4C00001207047491C0629F7D30020F9E7000036
:10C4D000014605484056C017401C002801D00120E5
:10C4E00070470020FCE70000C827002001460448F0
:10C4F0004056042801DB012070470020FCE70000C3
:10C50000C8270020014606484056002805DB04489D
:10C510004056042801DA012070470020FCE70000A3
:10C52000C82700200022D24301490A547047000066
:10C53000C8270020F8B500BF1B4805210902401894
:10C54000C068074600BF184840184069009000BF07
:10C55000154840188068044600BF13484018006919
:10C560000546114E0022D24311463046FFF76DFEBC
:10C5700000BF00BF0022D24311463046FFF743FE02
:10C5800000BF3846FFF76FFD0098FFF76CFD681C91
:10C59000002802D02846FFF766FD601C002802D064
:10C5A0002046FFF760FDF8BD0020004070B548DF71
:10C5B000044600BF2546002D06D000BF00221146CC
:10C5C0002846FCF7C1FF00BF00BF70BD014600BF99
:10C5D0000848006804221040002801D10820704754
:10C5E00000BF002901D10E20F9E703484078086018
:10C5F0000020F4E7C82000202028002070B508485B
:10C600004469601C002807D000F00CF80546294654
:10C610002046FBF72BFF70BD012000074069FAE7B9
:10C620000010001001200007006980B27047000070
:10C6300010B5FEF777F8002017490880FFF7DEFFF6
:10C64000841EFFF7EFFF44431448046000201449A0
:10C65000086000BF0DE000220C214143114B5A50ED
:10C660000C214143C9180A810C214143C9184A8150
:10C67000401C0028EFD000200B4908700B490860CF
:10C680000B4908600B490860094800680421084309
:10C6900007490860002010BDA4200020A820002029
:10C6A000B8200020EC280020AC200020BC20002076
:10C6B000C8200020C0200020F8B504460D4600BF69
:10C6C0004148006804210840002801D10820F8BD35
:10C6D00000BF002C01D10E20F9E7002D01D10E2062
:10C6E000F5E72068002801D10E20F0E7FFF79AFF58
:10C6F000A188884202DBA088102801DA0720E6E73B
:10C70000E08800280DD0FFF779FF471EFFF78AFF6A
:10C710004743E088A18848432C490968401887426C
:10C7200001D20720D3E720798007800F002801D0AD
:10C730000720CCE726480088012801D10420C6E75D
:10C7400023480088286021480068686020480088E5
:10C750000C2250431F4A8018696841601C480088B9
:10C760000C2250431B4A21681150A18818480088A8
:10C770000C225043174A80180181E1881448008830
:10C780000C225043134A80184181FFF74BFF009061
:10C79000FFF748FFA188E28851434018471E3846FA
:10C7A0000099FBF76DFE0646FFF73CFF7043074913
:10C7B000096840180549086005480088401C04497C
:10C7C0000880002083E70000C8200020A820002067
:10C7D000A4200020EC28002010B504460F48007863
:10C7E000002819D00D480078042815D0022C02D05A
:10C7F000032C0FD102E0FEF7BBFA0CE008480068FA
:10C8000008210840002802D1FEF792FA01E0FEF765
:10C81000AFFA00E000BF00BF10BD0000AC20002058
:10C82000C820002001490860704700004015014001
:10C8300001484068704700000015014010B50446EB
:10C840000348846003211120FCF736FB10BD000073
:10C850000015014010B5012000040A49486009494B
:10C86000403948601120FCF791FA1120FCF798FA42
:10C870000120054908602F20FBF78CFC01200349AB
:10C88000087010BD4013014000100140EC20002052
:10C8900010B51120012181400E4A116000BF012016
:10C8A00000040D4988600C494039886001200B491B
:10C8B00048602F20FBF76EFC0120084988600020AB
:10C8C000074908602F20FBF765FC00200549087028
:10C8D00010BD000080E100E0401301400010014065
:10C8E000D8200020EC20002010B5FF2109310A4893
:10C8F000FFF786FC00BF084805210902401880693F
:10C90000C0B20649C968054A127D88540348007DB3
:10C91000401C0249087510BD002000400828002076
:10C9200030B58FB004460D460020079000BF684622
:10C93000007F01090901491C68460177007FF02149
:10C94000884310306946087700BF00BF6846407FC3
:10C9500001090901491C68464177407FF02188435D
:10C9600010306946487700BF6846807F06218843BB
:10C97000811C684681771C2108A8FBF730FD08A8B8
:10C98000007810218843411808A801700020099000
:10C990000B900C9007A80D9000200E90217868460F
:10C9A0008171032181800020009000BF68460078DB
:10C9B00001090901491C684601700078F02188438B
:10C9C00010306946087000BF00BF68464078010912
:10C9D0000901491C684641704078F02188431030B5
:10C9E0006946487000BF6846807806218843811CEC
:10C9F00068468170807808218843014668468170C6
:10CA0000807810218843014668468170807841080B
:10CA10004900491C68468170142102A8FBF7DFFC1D
:10CA200001A8029068460390012101820021418201
:10CA300014218182608823460C3302AA08A9A2DF50
:10CA40000FB030BD1FB50446012069460870684626
:10CA500004720648C068019000200449C874084662
:10CA600001684268684690471FBD00000828002002
:10CA700010B5FF2125310648FFF7C2FBFF21093120
:10CA80000348FFF7BDFB00210148FFF7DBFB10BDAA
:10CA90000020004030B504461088C01C984201D9DF
:10CAA0000C2030BD0220158848551088401C10808D
:10CAB0001120158848551088401C108010880C548F
:10CAC0001088401C10800020EBE7FEB507460E469C
:10CAD0001446B86A002801D10720FEBD002001904D
:10CAE00037E0B96A0C22019850430D18A888801CC1
:10CAF00000900098FE2801D90C20EEE70098401C19
:10CB0000218870542088401C208016202188705471
:10CB10002088401C208022889119288800F07CFE03
:10CB2000218840182080A88800280EDDA8680028E9
:10CB300001D10720D1E7AA8823889819A968FBF7B3
:10CB4000EFFB2088A988401820800198401CC0B2C3
:10CB500001902C20C15D01988142C2DC0020BCE71D
:10CB600038B5002000900A48009069460948FDF752
:10CB7000CBFA044600BF2546002D06D000BF002298
:10CB800011462846FCF7E0FC00BF00BF38BD00009E
:10CB90005DC201001821002010B5002907D0084B04
:10CBA0001A5C01239340074CA36000BF07E0044BCD
:10CBB0001A5C01239340034CE36000BF00BF10BD2B
:10CBC000C0DA01000005005070B53CDF044600BF2C
:10CBD0002546002D06D000BF002211462846FCF74E
:10CBE000B3FC00BF00BF70BD10B50446024804701E
:10CBF00000F0B6F810BD0000AC20002070B506466D
:10CC00000C46154629462046C046C04670BD000069
:10CC10000146002901D10E20704702480160002022
:10CC2000FAE7000010210020FFB581B00C4616463F
:10CC30001F46002C02D1072005B0F0BD2046810719
:10CC4000890F002901D1012100E00021002901D133
:10CC50000720F1E709480460094806800948076091
:10CC60000949019810DF0546002D01D02846E3E769
:10CC700001200649087016202EDFDDE7082100207C
:10CC80000C21002000210020FDCB01000421002008
:10CC90000146002901D10E207047024801600020A2
:10CCA000FAE70000142100200146C878002801D0CE
:10CCB000072070470020FCE710B502480068FEF727
:10CCC0006FF810BDB8200020F8B521480068400872
:10CCD00040001F4908601F480078142148431D493F
:10CCE000091D4418E568FFF79DFC014600902846A1
:10CCF000FBF7BCFB064618480660FFF793FC009064
:10CD000061884919481E0099FBF7B0FB0746BE42EF
:10CD100006D10F480068022108430D49086005E06C
:10CD20000B48006802218843094908600B480068E5
:10CD3000002809D10648006802210840002803D1D4
:10CD4000022000F051F902E0002000F04DF9F8BD9A
:10CD5000C820002020280020B8200020B02000207B
:10CD600010B50D480078002806D0012807D0022809
:10CD700008D003280CD108E000F018F809E000F012
:10CD800067F806E0FFF7A0FF03E0FFF795FF00E07C
:10CD900000BF00BF10BD0000AC20002010B502484D
:10CDA0000068FDF7FDFF10BDB820002010B5002081
:10CDB0000349086003490860FDF78CFC10BD0000C2
:10CDC000BC200020C020002070B5FFF717FC461ED5
:10CDD000FFF728FC46433446FFF724FC0549096861
:10CDE000491E484305460448214602682846FEF786
:10CDF0001FF870BDB8200020B0200020F8B5124800
:10CE00000078142148431049091D4418E568FFF7CC
:10CE100009FC064661884919A28888183146FBF743
:10CE200025FB0091FFF7EAFB471EFFF7FBFB47439B
:10CE300000983E1861884919A288881803490A6831
:10CE40003146FDF7F5FFF8BD20280020B420002072
:10CE500010B500F02FF810BDF8B5FFF7E3FB06465C
:10CE6000FFF7CCFB471EFFF7DDFB47433D4631464E
:10CE70002846FBF7FBFA0446FDF792FFF8BD0000D9
:10CE8000F8B5FFF7CFFB8408FFF7CCFB084909682A
:10CE900048430546FFF7B2FB471EFFF7C3FB474376
:10CEA0003E46224629463046FDF7C2FFF8BD000047
:10CEB000B820002070B51648007814214843144962
:10CEC000091D4418FFF7AEFB6188884214DAFFF7AA
:10CED000A9FB61880D1AFFF7A5FB8608A388E26805
:10CEE000D2185019226951193246FDF7A1FFFFF7F8
:10CEF00099FB084908600AE0A588E3685819638827
:10CF00009A082169FDF794FF60880249086070BDA6
:10CF100020280020C020002010B50120FFF764FE6B
:10CF200010BD000010B50F48006808210840002817
:10CF300014D10D480078142148430B49091D4418A9
:10CF400060880A490988401A60806088002802D1F8
:10CF5000FDF7F8FB01E0FFF7ADFF01E0FEF738FC5D
:10CF600010BD0000C820002020280020C020002084
:10CF700010B50648006808210840002803D10120A8
:10CF800000F032F801E000F013F810BDC8200020D6
:10CF900010B5FDF767FB10BD10B50349097889008E
:10CFA000024A5058804710BDAD20002054DB0100DC
:10CFB00010B5054800680821884303490860034804
:10CFC000007800F011F810BDC8200020AD2000202E
:10CFD00010B5034909788900024A5058804710BDAE
:10CFE000AD20002068DB010010B504460248047043
:10CFF000FFF7D2FF10BD0000AD20002070B5044641
:10D000000D460A2C02D00B2C20D117E010480078D6
:10D01000012803D10FA0FBF713F90EE011480068B7
:10D02000FCF7BCFB002010490870104908800D2057
:10D03000FFF782F80A20FEF7DFFC07E00C480078D3
:10D04000012802D10BA0FBF7FBF800BF00BF70BDA9
:10D05000592000204F50454E5F5354203A204F4BEB
:10D060000D0A0000F0DA01003420002036200020F4
:10D070005A200020434C4F53455F5354203A204FD1
:10D080004B0D0A0010B504462046FFF7A5FB10BD66
:10D0900010B50648006808210840002802D1FFF7B3
:10D0A00077FF01E0FFF784FF10BD0000C8200020DB
:10D0B000FEB505460C46FFF7B5FA07463946204649
:10D0C000FBF7DEF90646FFF7ADFA07463946284674
:10D0D000FBF7D6F901900198864204D1601B8008C5
:10D0E000084908600DE0FFF79DFA0746FFF79AFA36
:10D0F000014600902846FBF7C3F9781A80080149D9
:10D100000860FEBDB42000200246501A0002000A4A
:10D110007047000070B504460D480068002812D022
:10D120000B4AA169606912689047054600BF2E4608
:10D13000002E06D000BF002211463046FCF704FA4C
:10D1400000BF00BF02E06169A069884770BD0000B0
:10D15000E820002070B500BF00230A4A07211846C6
:10D16000FCF794FA044600BF2546002D06D000BF08
:10D17000002211462846FCF7E7F900BF00BF00BFB8
:10D1800070BD000034210020FEB500200190114840
:10D190000468114807686846FDF7E2FC0546FEF79B
:10D1A0006BF90646002D05D001AA21460098FDF72F
:10D1B0002BFD01260198FEF7A9F9002800D00126D1
:10D1C000002E02D03846FDF7E7FA00200349087028
:10D1D000FEBD0000D8200020D4200020ED2000203B
:10D1E00010B51420FBF7E6FD10BD000010B519497D
:10D1F0000968002902D1174908602AE0154A016828
:10D200001268126891420DD81249096809680268CB
:10D21000891A104A126811600E490968C1610D49E6
:10D22000086016E002680B4C2368216803E00C6874
:10D23000121B0B46C969002902D00C689442F6D330
:10D24000002902D00C68A41A0C600260C161D86188
:10D2500000BF10BDD420002030B50246164C216816
:10D26000084604E0904200D103E00146C06900286E
:10D27000F8D100BF002800D130BD814211D10E4C41
:10D280002468E4690C4D2C602C462468002C08D1DD
:10D2900001240A4DAC600024094D2C600124094D85
:10D2A0002C700368C469CC61C869002802D0046886
:10D2B000E418046000BFDFE7D42000200010014024
:10D2C000D8200020ED200020FFB581B005460E4695
:10D2D0001746E900114A12688818694600F009FBF0
:10D2E0000446002C02D1042005B0F0BD01202070BE
:10D2F0006660FFF79DFAA060E760049820610A98D5
:10D300006061E900054A126888186946097800F0EA
:10D3100007FBFFF765FF0020E6E70000D0200020B4
:10D32000F8B504460E46E1000C4A126888186946B2
:10D3300000F0DFFA0546002D01D10420F8BD0220DF
:10D3400028706E60E100054A1268881869460978FD
:10D3500000F0E6FAFFF744FF0020EFE7D0200020BE
:10D36000F8B51F480068002839D00027FFF760FA99
:10D3700000901C4801680098FFF7C6FE0646184852
:10D38000056811E02868B04200D90FE02868361A15
:10D390002868C7192C46ED69207C002804D000209D
:10D3A00020742046FFF7B6FE002DEBD100BF0E48DB
:10D3B00000780E490978884209D10C480078401C51
:10D3C000C0B20A490870022801D10020087007483D
:10D3D0000078800006490F50FFF702FF00BFF8BD3C
:10D3E000D4200020D8200020E4200020E5200020C8
:10D3F000DC20002010B51120FBF7DCFC10BD70B55F
:10D4000004461D4610881230A84201D90C2070BD78
:10D410001120168888551088401C1080102016880E
:10D4200088551088401C10800F2307E0E05C1688A8
:10D430008855581E43B21088401C1080002BF5DA26
:10D440000020E4E7F8B506460C4600BF05200002C0
:10D4500030188069C0B20090A07A617A884204DAFC
:10D4600068460078A27A21698854A07A401CA0728C
:10D47000A07A451C207AA84206DDE068415D30466E
:10D48000FEF7A7FE0120F8BD607AA84205DDE1792C
:10D490003046FEF79EFE0120F5E7A07A217A884209
:10D4A00003DBA07A617A884201DA0120EBE70020F1
:10D4B000E9E7000010B5FF211D310A48FEF7A0FE84
:10D4C000094880680849098A445C0748008A401C6A
:10D4D0000549088220460349052212028918C861BD
:10D4E00000BF10BD002000400828002030B58FB0DC
:10D4F00004460D461C2108A8FAF771FF08A8007819
:10D5000008218843411808A8017000780421884345
:10D51000011D08A80170002009900B900C900D903F
:10D520000E902178684681720221018100200190CD
:10D5300000BF6846007901090901491C684601716C
:10D540000079F021884310306946087100BF00BFA0
:10D550006846407901090901491C684641714079D2
:10D56000F021884310306946487100BF68468079D1
:10D5700006218843811C684681718079082188438F
:10D5800001466846817180791021884301466846CA
:10D590008171807941084900491C684681711421D4
:10D5A00003A8FAF71CFF02A8039001A80490012128
:10D5B000684681820021C182142101836088231D75
:10D5C00003AA08A9A2DF0FB030BD00001FB50446B2
:10D5D0000020694608706846047206488068019019
:10D5E00000200449887408460168426868469047EC
:10D5F0001FBD00000828002030B504461088C01C5C
:10D60000984201D90C2030BD022015884855108859
:10D61000401C10800A20158848551088401C108036
:10D6200015884C551088401C10800020EBE7000046
:10D6300010B504462078002804D0012841D00228E3
:10D6400047D136E024490A780978491C224B1970E1
:10D6500022495018FCF7DCF820481F490978405C43
:10D66000312804D1FBF7F6FA00201B4908701B484B
:10D6700019490978405C322804D1FBF7F5FA0020FB
:10D6800015490870154814490978405C332804D1BD
:10D69000FBF7A4FD00201049087010480E490978D6
:10D6A000405C342804D1FBF78FFD00200A49087044
:10D6B00010E000BF002211466068FBF745FF00BF85
:10D6C00008E000BF002211466068FBF73DFF00BF85
:10D6D00000E000BF00BF10BD1A200020F42300208E
:10D6E0007CB504460E462078012828D16068017870
:10D6F0002648FBF76FFF0546002D08D0012069463C
:10D700000870019568462249096888470BE01F4860
:10D71000FDF7B7FA012806D100206946087068466F
:10D720001B49096888471948FDF7ABFA17498988EA
:10D73000884203D801211748FEF7D4FA24E0207864
:10D74000022808D169460870E068019068461049CF
:10D750000968884718E02078002815D10E490F483D
:10D76000FBF713FF002803D101210B48FEF738FB1C
:10D770000A48FDF786FA002806D10320694608709A
:10D7800068460349096888477CBD0000F8280020E6
:10D79000F8200020FE200020FC2000200829002086
:10D7A00030B587B017480078032806D1FCF712F887
:10D7B000FCF716F80220FEF7F5F8134A07CA04AB87
:10D7C00007C300BF11480090FF20013001901048AE
:10D7D0000290FF200130039003230E4A694604A8FB
:10D7E000FCF732F8044600BF00BF2546002D06D0E6
:10D7F00000BF002211462846FBF7A6FE00BF00BF6F
:10D8000007B030BD19200020D4DA01000824002020
:10D810000825002031D6010002460A70FF200002D0
:10D820001040001248700220704710B5FCF790FEBF
:10D8300010BD000038B505462048008820498842C0
:10D840003BD020480078401C1E4908701E48007BD1
:10D85000097888420FDB1D491848008875DF0446A7
:10D86000002C07D018488069002803D01648816929
:10D870002046884721E00020124908701248007CA9
:10D8800000280FD03B210D48008876DF0446002C8D
:10D8900007D00D488069002803D00B4881692046D5
:10D8A000884700BF08484069002806D00020009043
:10D8B000054841696846884700BF38BD8A20002076
:10D8C000FFFF0000882000206C270020802000201F
:10D8D00010B5FDF7B9F8012802D0032804D101E002
:10D8E000002403E0012401E0022400BF00BF204621
:10D8F00010BD70B502460B465078401CC1B29078FE
:10D90000884200D100211078884201D1002070BDEA
:10D91000197050781826704355682C182046F6E781
:10D9200041707047FFB583B015460D9F0C9E01975F
:10D9300000960222069B0499039800F015F804460D
:10D94000002C02D0204607B0F0BD019700961022AF
:10D950002946069B039800F007F80446002C01D0E6
:10D960002046F0E70020EEE7FFB587B006461D46EB
:10D97000109C0020069020880590002749E0B900FF
:10D98000706841180A88684682804988C1800022F0
:10D9900002A901A865DF03900398002802D003982C
:10D9A0000BB0F0BD6846017A0998814230D10698E3
:10D9B000002801D0002000E0022000902088694665
:10D9C000097A4118009809181198814201DD0C204C
:10D9D000E6E7069800280AD12088401C208021888C
:10D9E000089868542088401C2080012006902088D8
:10D9F000421902A901A865DF03900398002801D00D
:10DA00000398CDE721886846007A0818208000BF77
:10DA10007F1C3088B842B2DC069800280ED02188DE
:10DA20000598401C081A80B204900498FF2801DD74
:10DA30000C20B5E70498C1B2059829540020AFE73F
:10DA4000704700003EB5002401216846017012486D
:10DA50000190684601721149FEF79EFA044600BF24
:10DA60002546002D06D000BF002211462846FBF7B0
:10DA70006BFD00BF00BF0A48FEF73AFA044600BF3C
:10DA80002546002D06D000BF002211462846FBF790
:10DA90005BFD00BF00BF3EBD204E000041DA01002B
:10DAA0001820002001460879002802D1087B0028B0
:10DAB00001D0012070470020FCE70000D4230020A3
:10DAC00015161C01000200010207000002020000FE
:10DAD000000000001E1D28280000000000509D00CE
